:100000000C9435000C945D000C943B010C945D0045
:100010000C945D000C945D000C945D000C945D00EC
:100020000C945D000C945D000C945D000C949101A7
:100030000C945D000C945D000C947E010C946A019C
:100040000C945D000C945D000C945D000C945D00BC
:100050000C945D000C945D000C945D000C945D00AC
:100060000C945D000C945D00EE0111241FBECFEFD7
:10007000D8E0DEBFCDBF11E0A0E0B1E0E0E2FBE000
:1000800002C005900D92A831B107D9F727E0A8E189
:10009000B1E001C01D92A539B207E1F710E0C5E358
:1000A000D0E004C02197FE010E947803C433D10739
:1000B000C9F70E941D020C948E050C9400008091DB
:1000C000930790919407209191073091920782179E
:1000D0009307A4F42091C00025FFFCCF8F58984FC0
:1000E000FC0180818093C6008091930790919407D2
:1000F00001969093940780939307E1CF0895AF9270
:10010000BF92CF92DF92EF92FF920F931F93CF9304
:10011000DF93CDB7DEB7A0970FB6F894DEBF0FBE62
:10012000CDBF8C0197FF04C088279927801B910BB6
:100130009E012F5F3F4F6901F12CE12C4AE0A42E74
:10014000B12CF7013196B5010E945003805DD601B4
:100150008D936D01CB0118161906ACF117FF06C07F
:10016000E20FF31F8DE28083F7013296E20FF31F57
:100170001082D901FD01E21BF30B8D918111FACFA1
:100180008F01020F131FD901B90160957095AB0162
:10019000400F511FCD01821B930B84179507ACF0C4
:1001A0008091910790919207F901E80FF91FDC0106
:1001B000AF58B84F41919C012F5F3F4F442389F0C6
:1001C0004D93C901F7CF7F01BCCF8D91F80192917A
:1001D0008F01AD0141505109FA019083F8018083EC
:1001E000D6CFFC01EF58F84F4DE040832F58384FE1
:1001F0004AE0D9014C93029690939207809391071D
:100200000E945F001092920710929107109294073B
:1002100010929307A0960FB6F894DEBF0FBECDBF25
:10022000DF91CF911F910F91FF90EF90DF90CF90D2
:10023000BF90AF900895E0919107F0919207DC0193
:10024000AE0FBF1FEF58F84F9F01215737409D91C8
:10025000992311F09193F8CF30939207209391074F
:100260000E945F00109292071092910710929407DB
:100270001092930708951F920F920FB60F921124B8
:100280002F933F938F939F93809168079091690775
:1002900020916207309163074A9B14C02F5F3F4F44
:1002A00030936307209362070196909369078093C8
:1002B00068079F918F913F912F910F900FBE0F90E4
:1002C0001F901895215031093093630720936207DE
:1002D0000197EBCF1F920F920FB60F9211248F93BD
:1002E0009F939BB180916C07809589238BB99F91D7
:1002F0008F910F900FBE0F901F9018951F920F9225
:100300000FB60F9211248F939F938BB190916C072E
:10031000892B8BB99F918F910F900FBE0F901F90DB
:1003200018951F920F920FB60F921124CF92DF9261
:10033000EF92FF922F933F934F935F936F937F932F
:100340008F939F93AF93BF93CF93DF93EF93FF93DD
:100350008091000190910101019690930101809399
:100360000001C2E6D7E06E817F81072E000C880B6A
:10037000990B0E94950420E030E04AE754E40E9483
:1003800021056B017C0168857985072E000C880B9F
:10039000990B0E9495049B01AC01C701B6010E9414
:1003A000EB036A837B838C839D831F821E82FF9174
:1003B000EF91DF91CF91BF91AF919F918F917F91FD
:1003C0006F915F914F913F912F91FF90EF90DF9050
:1003D000CF900F900FBE0F901F90189584E08093E0
:1003E000700788E080936F0780E180936E0780E25A
:1003F00080936D0780E480936C07E99AE9E6F0E06A
:1004000080818C60808378948AE090E090936B0781
:1004100080936A078AE097EDA3E2BCE380935E07CE
:1004200090935F07A0936007B093610784EF90E01B
:1004300090935B0780935A0708951092C50080E15E
:100440008093C40088E18093C1008EE08093C20055
:1004500010929207109291071092940710929307AE
:100460008AB190916C07892B8AB914BC15BC16BC53
:1004700080915A0787BD18BC84B5826084BD809185
:100480006E00866080936E0085B5816085BD109298
:1004900080001092810010928500109284008BE9F8
:1004A00090E090938900809388008091810088601B
:1004B0008093810080916F00826080936F008091B3
:1004C00081008560809381009AB18091700780954A
:1004D00089238AB98BB190917007892B8BB99AB116
:1004E00080916F07809589238AB98BB190916F07AE
:1004F000892B8BB98AB190916E07892B8AB98AB101
:1005000090916D07892B8AB99BB180916E07809578
:1005100089238BB98BB190916D07892B8BB983EFB0
:10052000E82EF12CC1E0D0E002E310E02091640756
:1005300030916507409166075091670760E070E071
:1005400086E194E40E947E0320915E0730915F076C
:1005500040916007509161070E9421054B015C01A9
:1005600060915C0770915D07072E000C880B990B5A
:100570000E9495049B01AC01C501B4010E947F0358
:100580000E945D04653F71050CF07EC070935D07AD
:1005900060935C0780915C0790915D0718161906BF
:1005A00024F0D0935D07C0935C0780915C0788BD01
:1005B000D7B4B8B4C7B48091000190910101B801DB
:1005C0000E945003892B09F064C082E091E00E94F0
:1005D0001B01609164077091650780916607909197
:1005E00067070E945D04CB010E947F008FE99FE0B6
:1005F0000197F1F700C0000088E091E00E941B0124
:1006000088E592E00E947F008FE99FE00197F1F773
:1006100000C0000081E191E00E941B018D2D8B192B
:10062000990BBC01072E000C880B990B0E949504B6
:100630004B015C016C2D70E090E080E00E9495041D
:100640009B01AC01C501B4010E94EB039B01AC010D
:1006500060E070E080E89FE30E947E0320E030E0ED
:1006600048EC52E40E9421050E945D04CB010E94E7
:100670007F008FE39FE10197F1F700C00000D09366
:100680000101C093000152CFF0925D07E0925C0738
:1006900081CF8FE79EE30197F1F700C0000046CFBE
:1006A00097FB072E16F4009407D077FD09D00E941F
:1006B000640307FC05D03EF4909581959F4F089503
:1006C000709561957F4F0895AA1BBB1B51E107C030
:1006D000AA1FBB1FA617B70710F0A61BB70B881FD2
:1006E000991F5A95A9F780959095BC01CD01089561
:1006F000EE0FFF1F0590F491E02D09945058BB2791
:10070000AA270E9496030C94E7040E94D90438F0AB
:100710000E94E00420F039F49F3F19F426F40C9471
:10072000D6040EF4E095E7FB0C94D004E92F0E9468
:10073000F80458F3BA17620773078407950720F087
:1007400079F4A6F50C941A050EF4E0950B2EBA2F49
:10075000A02D0B01B90190010C01CA01A0011124C7
:10076000FF27591B99F0593F50F4503E68F11A1673
:10077000F040A22F232F342F4427585FF3CF469504
:1007800037952795A795F0405395C9F77EF41F1626
:10079000BA0B620B730B840BBAF09150A1F0FF0FF0
:1007A000BB1F661F771F881FC2F70EC0BA0F621FDC
:1007B000731F841F48F4879577956795B795F795CC
:1007C0009E3F08F0B0CF9395880F08F09927EE0F61
:1007D0009795879508950E94FF030C94E7040E9463
:1007E000E00458F00E94D90440F029F45F3F29F05A
:1007F0000C94D00451110C941B050C94D6040E9447
:10080000F80468F39923B1F3552391F3951B550B25
:10081000BB27AA2762177307840738F09F5F5F4FD3
:10082000220F331F441FAA1FA9F335D00E2E3AF012
:10083000E0E832D091505040E695001CCAF72BD02A
:10084000FE2F29D0660F771F881FBB1F261737077B
:100850004807AB07B0E809F0BB0B802DBF01FF27AD
:1008600093585F4F3AF09E3F510578F00C94D004B6
:100870000C941B055F3FE4F3983ED4F3869577957F
:100880006795B795F7959F5FC9F7880F911D969566
:10089000879597F90895E1E0660F771F881FBB1FC2
:1008A000621773078407BA0720F0621B730B840B6F
:1008B000BA0BEE1F88F7E09508950E9464046894CF
:1008C000B1110C941B0508950E94000588F09F57F4
:1008D00098F0B92F9927B751B0F0E1F0660F771F64
:1008E000881F991F1AF0BA95C9F714C0B13091F05A
:1008F0000E941A05B1E008950C941A05672F782F0D
:100900008827B85F39F0B93FCCF38695779567951E
:10091000B395D9F73EF490958095709561957F4F8A
:100920008F4F9F4F0895E89409C097FB3EF4909530
:100930008095709561957F4F8F4F9F4F9923A9F0B8
:10094000F92F96E9BB279395F69587957795679547
:10095000B795F111F8CFFAF4BB0F11F460FF1BC08B
:100960006F5F7F4F8F4F9F4F16C0882311F096E91E
:1009700011C0772321F09EE8872F762F05C06623CC
:1009800071F096E8862F70E060E02AF09A95660F85
:10099000771F881FDAF7880F9695879597F908953E
:1009A00097F99F6780E870E060E008959FEF80EC22
:1009B000089500240A9416161706180609060895C5
:1009C00000240A9412161306140605060895092E2B
:1009D0000394000C11F4882352F0BB0F40F4BF2B9A
:1009E00011F460FF04C06F5F7F4F8F4F9F4F0895DA
:1009F00057FD9058440F551F59F05F3F71F04795D0
:100A0000880F97FB991F61F09F3F79F087950895B4
:100A1000121613061406551FF2CF4695F1DF08C0D3
:100A2000161617061806991FF1CF869571056105F0
:100A300008940895E894BB2766277727CB0197F998
:100A400008950E9434050C94E7040E94D90438F0FC
:100A50000E94E00420F0952311F00C94D0040C9433
:100A6000D60411240C941B050E94F80470F3959F82
:100A7000C1F3950F50E0551F629FF001729FBB2795
:100A8000F00DB11D639FAA27F00DB11DAA1F649F31
:100A90006627B00DA11D661F829F2227B00DA11DE4
:100AA000621F739FB00DA11D621F839FA00D611D6A
:100AB000221F749F3327A00D611D231F849F600D8B
:100AC000211D822F762F6A2F11249F5750409AF0B4
:100AD000F1F088234AF0EE0FFF1FBB1F661F771F40
:100AE000881F91505040A9F79E3F510580F00C940B
:100AF000D0040C941B055F3FE4F3983ED4F3869535
:100B000077956795B795F795E7959F5FC1F7FE2BAA
:100B1000880F911D9695879597F90895F894FFCFC2
:100B200001005265663A20005461726765743A208C
:080B30000050574D3A2000006F
:00000001FF
