:100000000C9435000C9452000C9492000C94520005
:100010000C9452000C9452000C9452000C94520018
:100020000C9452000C9452000C9452000C94540006
:100030000C9452000C9452000C9452000C945200F8
:100040000C9452000C9452000C9452000C945200E8
:100050000C9452000C9452000C9452000C945200D8
:100060000C9452000C945200C10011241FBECFEF1B
:10007000D8E0DEBFCDBF21E0A0E0B1E001C01D921D
:10008000A233B207E1F710E0C5E3D0E004C0219746
:10009000FE010E941802C433D107C9F70E94DB0099
:1000A0000C94BA020C9400001F920F920FB60F929C
:1000B00011242F933F934F935F936F937F938F936D
:1000C0009F93AF93BF93CF93DF93EF93FF93C4E2DC
:1000D000D1E08885998568EE73E00E94F0018E81F9
:1000E0009F810E94F001072E000C880B990B0E9443
:1000F00056026A837B838C839D831F821E82FF91BD
:10010000EF91DF91CF91BF91AF919F918F917F91AF
:100110006F915F914F913F912F910F900FBE0F9074
:100120001F9018951F920F920FB60F9211242F93C4
:100130003F938F939F9380912A0190912B0120915F
:100140002401309125014A9B14C02F5F3F4F30930B
:10015000250120932401019690932B0180932A017D
:100160009F918F913F912F910F900FBE0F901F90F5
:1001700018952150310930932501209324010197CE
:10018000EBCF84E08093310188E08093300180E1FF
:1001900080932F0180E280932E01E99AE9E6F0E056
:1001A00080818C608083789488EE93E090932D0119
:1001B00080932C010895CF93DF93CDB7DEB7A0973E
:1001C0000FB6F894DEBF0FBECDBF1092C50080E120
:1001D0008093C40088E18093C1008EE08093C200C8
:1001E00010922301109222011092210110922001FD
:1001F000109280001092810010928500109284006D
:100200008CE093E090938900809388008091810036
:1002100088608093810080916F00826080936F007E
:10022000809181008560809381009AB18091310135
:10023000809589238AB98BB190913101892B8BB933
:100240009AB180913001809589238AB98BB19091C0
:100250003001892B8BB98AB190912F01892B8AB9F2
:100260008AB190912E01892B8AB98BB190912F017F
:10027000892B8BB99BB180912E01809589238BB9F5
:100280008E010F5F1F4F8AE0E82EF12C9DE2692E50
:100290006801C094D0942DE0522E3AE0732E8FE97D
:1002A0009FE00197F1F700C0000060912601709176
:1002B000270180912801909129010E941E025B0173
:1002C0009B0177FF04C022273327261B370BC90168
:1002D0004801F0E0E0E09F012F5F3F4FB7010E942F
:1002E000F001805DD4018D934D01CB0118161906E4
:1002F000A4F1B7FE07C0200F311FD9016C929F01F6
:100300002E5F3F4F200F311FF9011082D801FD01F0
:10031000E01BF10B8D918111FACFAF01400F511FFE
:10032000D8019601240F351FCD01801B910B821738
:100330009307ACF08091220190912301D801A80F7E
:10034000B91FFC01E050FF4F4D919C012F5F3F4FC3
:10035000442389F04193C901F7CFF901BCCF8D91B6
:10036000FA019291AF019D0121503109F901908369
:10037000FA018083D6CFFC01E050FF4F508220501D
:100380003F4FD9017C9202969093230180932201E2
:10039000809120019091210120912201309123012F
:1003A00082179307A4F42091C00025FFFCCF805052
:1003B0009F4FFC0180818093C60080912001909125
:1003C000210101969093210180932001E1CF1092A9
:1003D00023011092220110922101109220015FCF7F
:1003E00097FB072E16F4009407D077FD09D00E94E2
:1003F000040207FC05D03EF4909581959F4F089527
:10040000709561957F4F0895AA1BBB1B51E107C0F2
:10041000AA1FBB1FA617B70710F0A61BB70B881F94
:10042000991F5A95A9F780959095BC01CD01089523
:10043000EE0FFF1F0590F491E02D09940E94250214
:100440006894B1110C94B40208950E94990288F046
:100450009F5798F0B92F9927B751B0F0E1F0660F88
:10046000771F881F991F1AF0BA95C9F714C0B130C9
:1004700091F00E94B302B1E008950C94B302672F8B
:10048000782F8827B85F39F0B93FCCF386957795F8
:100490006795B395D9F73EF49095809570956195E1
:1004A0007F4F8F4F9F4F0895E89409C097FB3EF40C
:1004B00090958095709561957F4F8F4F9F4F9923B1
:1004C000A9F0F92F96E9BB279395F695879577952F
:1004D0006795B795F111F8CFFAF4BB0F11F460FFEF
:1004E0001BC06F5F7F4F8F4F9F4F16C0882311F047
:1004F00096E911C0772321F09EE8872F762F05C05B
:10050000662371F096E8862F70E060E02AF09A95F5
:10051000660F771F881FDAF7880F9695879597F9EA
:10052000089557FD9058440F551F59F05F3F71F0E3
:100530004795880F97FB991F61F09F3F79F087954A
:100540000895121613061406551FF2CF4695F1DFD3
:1005500008C0161617061806991FF1CF8695710563
:10056000610508940895E894BB2766277727CB0197
:0805700097F90895F894FFCFFC
:00000001FF
