:100000000C9434000C9446000C9448000C94460068
:100010000C9446000C9446000C9446000C94460048
:100020000C9446000C9446000C9446000C94460038
:100030000C9446000C9446000C9446000C94460028
:100040000C9446000C9446000C9446000C94460018
:100050000C9446000C9446000C9446000C94460008
:100060000C9446000C94460011241FBECFEFD8E03C
:10007000DEBFCDBF21E0A0E0B1E001C01D92A632FD
:10008000B207E1F70E9476000C948B010C940000FB
:100090001F920F920FB60F9211242F933F938F93BD
:1000A0009F9329B12470809124019091250185545A
:1000B0009D4F8737954020F0109225011092240122
:1000C0008091240190912501222371F00196909353
:1000D0002501809324019F918F913F912F910F9043
:1000E0000FBE0F901F9018950197F1CFCF93DF931C
:1000F000CDB7DEB7A0970FB6F894DEBF0FBECDBF69
:100100001092C50080E18093C40088E18093C10013
:100110008EE08093C200109223011092220110926F
:100120002101109220018AB188708AB98AB1847045
:100130008AB95B9AE99A809169008C608093690022
:1001400078949E012F5F3F4F8AE0E82EF12C6901E1
:10015000C094D0944DE09AE0792E5DE2652E8091B6
:100160002401909125018E359140C1F080912401A8
:10017000909125018E3591401CF45C9A5D98F6CFE4
:100180005C985D9880912401909125015C988F3551
:10019000914014F05D9AF6CF5D98E1CFEFE9FFE072
:1001A0003197F1F700C00000009124011091250162
:1001B000C80117FF04C088279927801B910B4901AC
:1001C000B12CA12CF5013196B7010E946301805D2D
:1001D000D4018D934D01CB01181619068CF117FF30
:1001E00005C0E20FF31F6082F5013296E20FF31FA4
:1001F0001082D901FD01E21BF30B8D918111FACF21
:100200008F01020F131FD901B601600F711FCD01BD
:10021000821B930B86179707ACF080912201909177
:100220002301D901A80FB91FFC01E050FF4F5D91D8
:10023000BC016F5F7F4F552389F05193CB01F7CFFE
:100240005F01C0CF8D91F80192918F01BD01615086
:100250007109FB019083F8018083D6CFFC01E05047
:10026000FF4F408360507F4FDB017C92029690935A
:1002700023018093220180912001909121016091BE
:1002800022017091230186179707A4F45091C000B2
:1002900055FFFCCF80509F4FFC0180818093C600AA
:1002A00080912001909121010196909321018093EA
:1002B0002001E1CF1092230110922201109221011E
:1002C000109220014CCF97FB072E16F4009407D014
:1002D00077FD09D00E94770107FC05D03EF4909588
:1002E00081959F4F0895709561957F4F0895AA1B42
:1002F000BB1B51E107C0AA1FBB1FA617B70710F011
:10030000A61BB70B881F991F5A95A9F78095909542
:0A031000BC01CD010895F894FFCF61
:00000001FF
